:0F13D40054454D503A20004C494748543A2000A8
:1012E1008F1D7FE87E031213FBE51D75F0648424D6
:1012F10030FF121406E51D75F06484E5F075F00AFF
:10130100842430FF121406E51D75F06484E5F07540
:0B131100F00A84E5F02430FF0214060F
:10105400AC07E4120AA87B487AE1799C784112082B
:10106400F8120ADCAB07AA067C037DE8120CB08EEA
:10107400218F227C037DE8AF03AE02120CB07E0008
:101084007F64CFCDCFCECCCE120CB08E238F247CF8
:10109400037DE8AF03AE02120CB07E007F64CFCDB7
:1010A400CFCECCCE120CB07E007F0ACFCDCFCECC2B
:1010B400CE120CB08F82AE02AF037C037DE8120C1B
:1010C400B07E007F64CFCDCFCECCCE120CB07E00EC
:1010D4007F0ACFCDCFCECCCE120CB085222585246D
:1010E400268582278D287D01E4FF12135E7FE87E2A
:1010F400031213FBE5252430FF121406E5262430E1
:10110400FF121406E5272430FF121406E5282430C4
:04111400FF021406BC
:0211B200AB0789
:1011B400EB75F064A424B4FFE5F034C9FE7C007D33
:1011C40034120C5B8E098F0AEBD394A54008050AF0
:1011D400E50A700205097F647E001213FBE4FDFF3B
:1011E40012135E7BFF7A1379D41213AFAE09AF0AE0
:1011F4007C007D64120C5BEF2430FF121406AE09F0
:10120400AF0A7C007D64120C5B7E007F0ACFCDCFD9
:10121400CECCCE120C5BEF2430FF121406AE09AF15
:101224000A7C007D64120C5B7E007F0ACFCDCFCE9A
:0C123400CCCE120C5BED2430FF0214063F
:100F6000AC07E4120AA8E4FBFA79A078401208F86A
:100F7000E4FBFA797F7843120A018F0C8E0B8D0AFD
:100F80008C09AB0CAA0BA90AA809E4FFFE7DA07C82
:100F900040120803C004C005C006C0077F007E40A1
:100FA0007D1C7C46AB0CAA0BA90AA8091208F8D034
:100FB00003D002D001D000120A01AB07AA06A9058E
:100FC000A8047F007EA07D8C7C46120A017516E481
:100FD00075153875148E75133F120E49E4FBFA79B6
:100FE0002078411208F8120ADC8E0D8F0E7F647E85
:100FF000001213FB7D01E4FF12135E7BFF7A13796D
:10100000DB1213AFAE0DAF0E7C007D64120C5BEFF4
:101010002430FF121406AE0DAF0E7C007D64120C5E
:101020005B7E007F0ACFCDCFCECCCE120C5BEF24FF
:1010300030FF121406AE0DAF0E7C007D64120C5B07
:101040007E007F0ACFCDCFCECCCE120C5BED24300C
:04105000FF02140681
:1012400012129C12140E7F0112131C8F087FFA7E5B
:101250000012133E1213E3AF081211B212140E7FE4
:101260000212131C8F08120F607FD07E0712133EEC
:101270007F0112131C8F087F327E0012133E12135F
:10128000E3AF081211B212140E7F0212131C8F0862
:0C129000120F607FB87E0B12133E80D45A
:0B13FB00EF1FAC0670011E4C70F622C4
:10133E00E4FDFCC3ED9FEC9E5015E4FBFA0BBB00E5
:0F134E00010AEB647B4A70F50DBD00010C80E4D1
:01135D00226D
:03139A0012137EAD
:10139D00D2827F037E001213FBC2827F327E000257
:0213AD0013FB30
:10137E00EF139284EFC313139285EF1313543F139D
:0C138E009286EF131313541F1392872252
:1013C200AD07EDC4540FFF12139AAF0512137E023C
:0213D200139D69
:0C13E3007F011213C27F0A7E000213FB80
:10129C00E4FF12137E7F147E0012133EC280C281C3
:1012AC007F0312139A7F057E0012133E12139D7F4B
:1012BC00647E001213FB12139D7F0212137E121315
:1012CC009D7F281213C27F0C1213C27F061213C209
:0512DC007F010213C2B6
:10135E00ED7006EF2480FB8004EF24C0FB7FE87E57
:10136E00031213FBAF031213C27F327E000213FB74
:08140600D2801213C2C2802241
:1013AF00120C42FF600C121406740129F9E43AFA88
:0313BF0080EE229B
:07140E00C2A4C2A3C2A62282
:10131C00EF1392A0EFA2E192A1A2E292A2D2A3D2E9
:10132C00A4C2A3C2A420A5FD30A5FDD2A6AF90C235
:01133C00A60A
:01133D00228D
:10080000020B48E86480F8E933E83360110460F0D3
:10081000ED33EC337009E8FCE9FDEAFEEBFF22045E
:1008200060DED3EB9FEA9EE99DE8C2E78CF0C2F759
:1008300095F0400CE8CCF8E9CDF9EACEFAEBCFFB25
:10084000120B1385D0F05804700320D5B3E8047060
:10085000075002B2D5020B5292D5EC0460F7E4CCFB
:10086000C0E0C398F8603B94186008400DD0E0FBEE
:10087000020B2AE4FBFAC9FC8028E830E406E4C94C
:10088000FBE4CAFCE830E305E4C9CACBFCE8540742
:100890006010F8C3E913F9EA13FAEB13FBEC13FC4D
:1008A000D8F130F52FC3E49CFCEF9BFFEE9AFEEDF0
:1008B00099FDD0E0FBEF4E4D4C701222DB03020B92
:1008C0004FEC2CFCEF33FFEE33FEED33FDED30E764
:1008D000EB020B2AEF2BFFEE3AFEED39FDD0E0FBE9
:1008E00050130BBB0003020B52ED13FDEE13FEEF92
:0808F00013FFEC13FC020B2ABC
:1008F800EC4D6011E8497017ED33EC3304600DE4FA
:10090800FCFFFEFD22E933E8330470F8020B4812BD
:100918000B1358046009E4CC2481500628500902BE
:100928000B52284003020B4FC0E0EB4A7044B980D9
:1009380006D0E0FB020B3EEF4E701CBD8008EBFFBB
:10094800EAFEE9FD80EBE98DF0A4FEE5F00209E19D
:10095800E9CDF9EAFEEBFFEF89F0A4FCE5F0CE89DA
:10096800F0A42EFFE435F0CD89F0A42DFEE435F097
:100978008067EF4E7005BD80D780C3EF8BF0A4ACC5
:10098800F0EE8BF0A42CFCE435F0F8EF8AF0A42C00
:10099800E5F038FCE433CB8DF0A42CFCE5F03BF813
:1009A800EE8AF0A42CFCE5F038F8E433CF89F0A403
:1009B8002CFCE5F038CF3400CE89F0A42FFFE5F009
:1009C8003EFEE433C98DF0A42EFEE5F039CD8AF061
:1009D800A42FFFE5F03EFEE43DFD33D0E0FB5007D9
:1009E8000BBB000F020B52EC2CFCEF33FFEE33FE77
:0609F800ED33FD020B2AA5
:1009FE00020B52EC5D046005E859047003020B48CB
:100A0E00120B13580460F6EC4860F2EC7004FDFE15
:100A1E00FF22C860DB2481C85009C39860025006CB
:100A2E00020B4F9850CAF582E9294B4A7005AB82EA
:100A3E00020B3E75F0007C1A7880C3EF9BEE9AEDA8
:100A4E0099400DC3EF9BFFEE9AFEED99FDE842F043
:100A5E00DC23ACF0D0E0FFD0E0FED0E0FDAB822096
:100A6E00E7101BEB60BAEC2CFCEF33FFEE33FEED20
:100A7E0033FD020B2AE803F830E705C0F075F000ED
:100A8E00EF2FFFEE33FEED33FD40B830E7C280AA04
:100A9E0075F020800E75F010800575F0087D007ED3
:100AAE00007F003392D530D503120CE6EC334010A4
:100ABE00EF33FFEE33FEED33FDEC33FCD5F0ED22DC
:0E0ACE00E5F0247EA2D513CC92E7CDCEFF2218
:100ADC00EDD2E7CD33EC3392D524814006E4FFFE12
:100AEC00FDFC22FCE4CFCECDCC24E0501174FF8071
:100AFC00EDC3CC13CCCD13CDCE13CECF13CF04700E
:070B0C00F030D5DE020CE61B
:100E49008F128E118D108C0FE4FFFE7D807C3FABDD
:100E590012AA11A910A80F120B777009AF12AE11BF
:100E6900AD10AC0F22AF12AE11AD10AC0F120B5D6D
:100E7900FBAF16AE15AD14AC13120B5DFFBF010825
:100E8900E4FFFE7D807C3F22EF64046022EB640472
:100E9900601DBB0127E4FFFEFDFCAB16AA15A914D2
:100EA900A813120B7760084006E4FFFEFDFC2274CC
:100EB900FFF516F515F514F513020F57E4F517F5B7
:100EC90018FFFEFDFCAB12AA11A910A80F120B778F
:100ED900504BAF16AE15AD14AC13120ADC8E178F3A
:100EE90018AC17AD18EC120AA3C8ECC8C9EDC9CAE9
:100EF900EECACBEFCBAF16AE15AD14AC1312080387
:100F0900E4FBFAF9F8120B7770A5AF12AE11AD1028
:100F1900AC0F120BE48F128E118D108C0FAF12AE25
:100F290011AD10AC0F120D48AB16AA15A914A813D0
:100F39001208F81211508F168E158D148C13E5189E
:100F490030E00B120BE48F168E158D148C13AF162F
:070F5900AE15AD14AC13222C
:100B1300E9D2E7C933E833F892D5EDD2E7CD33EC28
:070B230033FC5002B2D522A1
:100B2A00EC30E7100FBF000C0EBE00080DBD00042C
:100B3A000BEB6014A2D5EB13FCED92E7FD2274FFD8
:100B4A00FCFDFEFF22E480F8A2D574FF13FC7D8031
:030B5A00E480EF45
:100B5D00ED33EC33601004700FED547F70057402AB
:0A0B6D0092E0227404220422E42224
:100B770074F8CC6480CCC86480C8F582046043C331
:100B8700EB9FF5F0EA9E42F0E99D42F0E89C45F0C4
:100B970060305018E5825FFFE582F42B5582FB50E9
:100BA700210ABA001D09B90019088016E5825BFB06
:100BB700E582F42F5582FF50090EBE00050DBD00DA
:100BC700010CC3EB9FF5F0EA9E42F0E99D42F0E885
:0D0BD7009C45F06007CC4820E701B3EC22FC
:100BE400ED33EC33600A047003BD8004ECB2E7FC1F
:010BF40022DE
:1011180033DA929E35B16011377FE5FE3921848933
:101128003AAEC3FF3C1D955B3D6358473E75FDF0E5
:101138003F3172183F800000C2D5020B52020B48A3
:10114800BD80FA50F3020B4FED33EC330460F17BB2
:101158003B7AAA79B8783F1208F8ED33EC3392D588
:10116800247B5011A2D570DB500BED448024045031
:1011780004A2D580CEEFFBEEFAEDF9ECF8120ADC0A
:10118800EFF582F404FC120AA8120807C082901135
:10119800187409120C04ED33CC33D0F092D525F035
:0A11A800A2D57001C313CC13FD2281
:100D14003E9248DA3ECCCCCD3F2AAAAB400000003C
:100D24003F8000003F9837F03FB504F33FD744FCC1
:100D34003E3172173EB172173F0515913EDE5BD905
:100D4400D2008002C200EDD2E7F8CD33EC33047058
:100D54000BBD800592D5020B52020B4840FBD31405
:100D640060F2F5F07C3FEE7A00C39496C8948B4011
:100D7400230AC89469C8941A401A0AC89468C89483
:100D84001F40110AC8945AC89425400805F07A00F7
:100D9400CDC2E7CDC0F08C198D1A8E1B8F1CEA23AF
:100DA40023C0E02424F582E4340DF583120D0412EB
:100DB4000807ECC0E0EDC0E0EEC0E0EFC0E0120CCC
:100DC400F4A819A91AAA1BAB1C120803D0E0FBD083
:100DD400E0FAD0E0F9D0E0B2E7F8120A018C198DFC
:100DE4001A8E1B8F1C900D147403120BF5A819A9ED
:100DF4001AAA1BAB1C1208F8D0E0600F2430F5824D
:100E0400E4340DF583120D041208078C198D1A8E23
:100E14001B8F1CD0E0C3947FFDE49400FC120AA352
:100E24007B187A727931783F1208F8A819A91AAA9E
:100E34001BAB1C12080730000B7BD97A5B79DE7878
:050E44003E1208F82237
:100BF500C0E0EFFBEEFAEDF9ECF81208F8D0E0F5FD
:100C0500F0EFFBEEFAEDF9ECF8120CF4A3A3A3A3B5
:100C1500E8C0E0E9C0E0EAC0E0EBC0E0C0F01208DF
:100C2500F8120D04A3A3A3A3120807D0F0D0E0FB8C
:0D0C3500D0E0FAD0E0F9D0E0F8D5F0D422FC
:030000000213EFF9
:0C13EF00787FE4F6D8FD758128021240DA
:100C4200BB010689828A83E0225002E722BBFE02B0
:090C5200E32289828A83E49322E3
:100C5B00BC000BBE0029EF8DF084FFADF022E4CC7D
:100C6B00F875F008EF2FFFEE33FEEC33FCEE9DEC46
:100C7B00984005FCEE9DFE0FD5F0E9E4CEFD22ED8C
:100C8B00F8F5F0EE8420D21CFEADF075F008EF2FD6
:100C9B00FFED33FD4007985006D5F0F222C398FDC7
:050CAB000FD5F0EA2264
:100CB000C2D5EC30E709B2D5E4C39DFDE49CFCEE5F
:100CC00030E715B2D5E4C39FFFE49EFE120C5BC370
:100CD000E49DFDE49CFC8003120C5B30D507C3E46B
:060CE0009FFFE49EFE22CE
:0E0CE600C3E49FFFE49EFEE49DFDE49CFC221F
:100CF400E493FC740193FD740293FE740393FF2246
:100D0400E493F8740193F9740293FA740393FB2245
:00000001FF
